{
    "contractName": "ERC20Handler",
    "abi": [
        {
            "inputs": [
                {
                    "internalType": "address",
                    "name": "bridgeAddress",
                    "type": "address"
                },
                {
                    "internalType": "bytes32[]",
                    "name": "initialResourceIDs",
                    "type": "bytes32[]"
                },
                {
                    "internalType": "address[]",
                    "name": "initialContractAddresses",
                    "type": "address[]"
                },
                {
                    "internalType": "address[]",
                    "name": "burnableContractAddresses",
                    "type": "address[]"
                }
            ],
            "stateMutability": "nonpayable",
            "type": "constructor"
        },
        {
            "inputs": [],
            "name": "_bridgeAddress",
            "outputs": [
                {
                    "internalType": "address",
                    "name": "",
                    "type": "address"
                }
            ],
            "stateMutability": "view",
            "type": "function"
        },
        {
            "inputs": [
                {
                    "internalType": "address",
                    "name": "",
                    "type": "address"
                }
            ],
            "name": "_burnList",
            "outputs": [
                {
                    "internalType": "bool",
                    "name": "",
                    "type": "bool"
                }
            ],
            "stateMutability": "view",
            "type": "function"
        },
        {
            "inputs": [
                {
                    "internalType": "address",
                    "name": "",
                    "type": "address"
                }
            ],
            "name": "_contractWhitelist",
            "outputs": [
                {
                    "internalType": "bool",
                    "name": "",
                    "type": "bool"
                }
            ],
            "stateMutability": "view",
            "type": "function"
        },
        {
            "inputs": [
                {
                    "internalType": "uint8",
                    "name": "",
                    "type": "uint8"
                },
                {
                    "internalType": "uint64",
                    "name": "",
                    "type": "uint64"
                }
            ],
            "name": "_depositRecords",
            "outputs": [
                {
                    "internalType": "address",
                    "name": "_tokenAddress",
                    "type": "address"
                },
                {
                    "internalType": "uint8",
                    "name": "_lenDestinationRecipientAddress",
                    "type": "uint8"
                },
                {
                    "internalType": "uint8",
                    "name": "_destinationChainID",
                    "type": "uint8"
                },
                {
                    "internalType": "bytes32",
                    "name": "_resourceID",
                    "type": "bytes32"
                },
                {
                    "internalType": "bytes",
                    "name": "_destinationRecipientAddress",
                    "type": "bytes"
                },
                {
                    "internalType": "address",
                    "name": "_depositer",
                    "type": "address"
                },
                {
                    "internalType": "uint256",
                    "name": "_amount",
                    "type": "uint256"
                }
            ],
            "stateMutability": "view",
            "type": "function"
        },
        {
            "inputs": [
                {
                    "internalType": "bytes32",
                    "name": "",
                    "type": "bytes32"
                }
            ],
            "name": "_resourceIDToTokenContractAddress",
            "outputs": [
                {
                    "internalType": "address",
                    "name": "",
                    "type": "address"
                }
            ],
            "stateMutability": "view",
            "type": "function"
        },
        {
            "inputs": [
                {
                    "internalType": "address",
                    "name": "",
                    "type": "address"
                }
            ],
            "name": "_tokenContractAddressToResourceID",
            "outputs": [
                {
                    "internalType": "bytes32",
                    "name": "",
                    "type": "bytes32"
                }
            ],
            "stateMutability": "view",
            "type": "function"
        },
        {
            "inputs": [
                {
                    "internalType": "address",
                    "name": "tokenAddress",
                    "type": "address"
                },
                {
                    "internalType": "address",
                    "name": "owner",
                    "type": "address"
                },
                {
                    "internalType": "uint256",
                    "name": "amount",
                    "type": "uint256"
                }
            ],
            "name": "fundERC20",
            "outputs": [],
            "stateMutability": "nonpayable",
            "type": "function"
        },
        {
            "inputs": [
                {
                    "internalType": "address",
                    "name": "contractAddress",
                    "type": "address"
                }
            ],
            "name": "setBurnable",
            "outputs": [],
            "stateMutability": "nonpayable",
            "type": "function"
        },
        {
            "inputs": [
                {
                    "internalType": "bytes32",
                    "name": "resourceID",
                    "type": "bytes32"
                },
                {
                    "internalType": "address",
                    "name": "contractAddress",
                    "type": "address"
                }
            ],
            "name": "setResource",
            "outputs": [],
            "stateMutability": "nonpayable",
            "type": "function"
        },
        {
            "inputs": [
                {
                    "internalType": "uint64",
                    "name": "depositNonce",
                    "type": "uint64"
                },
                {
                    "internalType": "uint8",
                    "name": "destId",
                    "type": "uint8"
                }
            ],
            "name": "getDepositRecord",
            "outputs": [
                {
                    "components": [
                        {
                            "internalType": "address",
                            "name": "_tokenAddress",
                            "type": "address"
                        },
                        {
                            "internalType": "uint8",
                            "name": "_lenDestinationRecipientAddress",
                            "type": "uint8"
                        },
                        {
                            "internalType": "uint8",
                            "name": "_destinationChainID",
                            "type": "uint8"
                        },
                        {
                            "internalType": "bytes32",
                            "name": "_resourceID",
                            "type": "bytes32"
                        },
                        {
                            "internalType": "bytes",
                            "name": "_destinationRecipientAddress",
                            "type": "bytes"
                        },
                        {
                            "internalType": "address",
                            "name": "_depositer",
                            "type": "address"
                        },
                        {
                            "internalType": "uint256",
                            "name": "_amount",
                            "type": "uint256"
                        }
                    ],
                    "internalType": "struct ERC20Handler.DepositRecord",
                    "name": "",
                    "type": "tuple"
                }
            ],
            "stateMutability": "view",
            "type": "function"
        },
        {
            "inputs": [
                {
                    "internalType": "bytes32",
                    "name": "resourceID",
                    "type": "bytes32"
                },
                {
                    "internalType": "uint8",
                    "name": "destinationChainID",
                    "type": "uint8"
                },
                {
                    "internalType": "uint64",
                    "name": "depositNonce",
                    "type": "uint64"
                },
                {
                    "internalType": "address",
                    "name": "depositer",
                    "type": "address"
                },
                {
                    "internalType": "bytes",
                    "name": "data",
                    "type": "bytes"
                }
            ],
            "name": "deposit",
            "outputs": [],
            "stateMutability": "nonpayable",
            "type": "function"
        },
        {
            "inputs": [
                {
                    "internalType": "bytes32",
                    "name": "resourceID",
                    "type": "bytes32"
                },
                {
                    "internalType": "bytes",
                    "name": "data",
                    "type": "bytes"
                }
            ],
            "name": "executeProposal",
            "outputs": [],
            "stateMutability": "nonpayable",
            "type": "function"
        },
        {
            "inputs": [
                {
                    "internalType": "address",
                    "name": "tokenAddress",
                    "type": "address"
                },
                {
                    "internalType": "address",
                    "name": "recipient",
                    "type": "address"
                },
                {
                    "internalType": "uint256",
                    "name": "amount",
                    "type": "uint256"
                }
            ],
            "name": "withdraw",
            "outputs": [],
            "stateMutability": "nonpayable",
            "type": "function"
        }
    ],
    "bytecode": "0x60806040523480156200001157600080fd5b50604051620025cc380380620025cc833981810160405281019062000037919062000483565b81518351146200007e576040517f08c379a000000000000000000000000000000000000000000000000000000000815260040162000075906200062c565b60405180910390fd5b836000806101000a81548173ffffffffffffffffffffffffffffffffffffffff021916908373ffffffffffffffffffffffffffffffffffffffff16021790555060005b8351811015620001135762000105848281518110620000dc57fe5b6020026020010151848381518110620000f157fe5b60200260200101516200015f60201b60201c565b8080600101915050620000c1565b5060005b81518110156200015457620001468282815181106200013257fe5b60200260200101516200025160201b60201c565b808060010191505062000117565b505050505062000751565b806001600084815260200190815260200160002060006101000a81548173ffffffffffffffffffffffffffffffffffffffff021916908373ffffffffffffffffffffffffffffffffffffffff16021790555081600260008373ffffffffffffffffffffffffffffffffffffffff1673ffffffffffffffffffffffffffffffffffffffff168152602001908152602001600020819055506001600360008373ffffffffffffffffffffffffffffffffffffffff1673ffffffffffffffffffffffffffffffffffffffff16815260200190815260200160002060006101000a81548160ff0219169083151502179055505050565b600360008273ffffffffffffffffffffffffffffffffffffffff1673ffffffffffffffffffffffffffffffffffffffff16815260200190815260200160002060009054906101000a900460ff16620002e0576040517f08c379a0000000000000000000000000000000000000000000000000000000008152600401620002d7906200060a565b60405180910390fd5b6001600460008373ffffffffffffffffffffffffffffffffffffffff1673ffffffffffffffffffffffffffffffffffffffff16815260200190815260200160002060006101000a81548160ff02191690831515021790555050565b6000815190506200034c816200071d565b92915050565b600082601f8301126200036457600080fd5b81516200037b62000375826200067c565b6200064e565b91508181835260208401935060208101905083856020840282011115620003a157600080fd5b60005b83811015620003d55781620003ba88826200033b565b845260208401935060208301925050600181019050620003a4565b5050505092915050565b600082601f830112620003f157600080fd5b8151620004086200040282620006a5565b6200064e565b915081818352602084019350602081019050838560208402820111156200042e57600080fd5b60005b838110156200046257816200044788826200046c565b84526020840193506020830192505060018101905062000431565b5050505092915050565b6000815190506200047d8162000737565b92915050565b600080600080608085870312156200049a57600080fd5b6000620004aa878288016200033b565b945050602085015167ffffffffffffffff811115620004c857600080fd5b620004d687828801620003df565b935050604085015167ffffffffffffffff811115620004f457600080fd5b620005028782880162000352565b925050606085015167ffffffffffffffff8111156200052057600080fd5b6200052e8782880162000352565b91505092959194509250565b600062000549602483620006ce565b91507f70726f766964656420636f6e7472616374206973206e6f742077686974656c6960008301527f73746564000000000000000000000000000000000000000000000000000000006020830152604082019050919050565b6000620005b1603c83620006ce565b91507f696e697469616c5265736f7572636549447320616e6420696e697469616c436f60008301527f6e7472616374416464726573736573206c656e206d69736d61746368000000006020830152604082019050919050565b6000602082019050818103600083015262000625816200053a565b9050919050565b600060208201905081810360008301526200064781620005a2565b9050919050565b6000604051905081810181811067ffffffffffffffff821117156200067257600080fd5b8060405250919050565b600067ffffffffffffffff8211156200069457600080fd5b602082029050602081019050919050565b600067ffffffffffffffff821115620006bd57600080fd5b602082029050602081019050919050565b600082825260208201905092915050565b6000620006ec82620006fd565b9050919050565b6000819050919050565b600073ffffffffffffffffffffffffffffffffffffffff82169050919050565b6200072881620006df565b81146200073457600080fd5b50565b6200074281620006f3565b81146200074e57600080fd5b50565b611e6b80620007616000396000f3fe608060405234801561001057600080fd5b50600436106100cf5760003560e01c80637f79bea81161008c578063ba484c0911610066578063ba484c0914610228578063c8ba6c8714610258578063d9caed1214610288578063e248cff2146102a4576100cf565b80637f79bea8146101c057806395601f09146101f0578063b8fa37361461020c576100cf565b806307b7ed99146100d45780630a6d55d8146100f0578063318c136e1461012057806338995da91461013e5780634402027f1461015a5780636a70d08114610190575b600080fd5b6100ee60048036038101906100e9919061140b565b6102c0565b005b61010a600480360381019061010591906114ac565b6102d4565b6040516101179190611a82565b60405180910390f35b610128610307565b6040516101359190611a82565b60405180910390f35b61015860048036038101906101539190611569565b61032b565b005b610174600480360381019061016f9190611637565b610653565b6040516101879796959493929190611afd565b60405180910390f35b6101aa60048036038101906101a5919061140b565b610794565b6040516101b79190611b73565b60405180910390f35b6101da60048036038101906101d5919061140b565b6107b4565b6040516101e79190611b73565b60405180910390f35b61020a60048036038101906102059190611434565b6107d4565b005b610226600480360381019061022191906114d5565b6107eb565b005b610242600480360381019061023d91906115fb565b610801565b60405161024f9190611c89565b60405180910390f35b610272600480360381019061026d919061140b565b6109f6565b60405161027f9190611b8e565b60405180910390f35b6102a2600480360381019061029d9190611434565b610a0e565b005b6102be60048036038101906102b99190611511565b610a26565b005b6102c8610bc4565b6102d181610c54565b50565b60016020528060005260406000206000915054906101000a900473ffffffffffffffffffffffffffffffffffffffff1681565b60008054906101000a900473ffffffffffffffffffffffffffffffffffffffff1681565b610333610bc4565b606060008060c4359150604051925060e4359050808301602001604052600e360360e484376000600160008b815260200190815260200160002060009054906101000a900473ffffffffffffffffffffffffffffffffffffffff169050600360008273ffffffffffffffffffffffffffffffffffffffff1673ffffffffffffffffffffffffffffffffffffffff16815260200190815260200160002060009054906101000a900460ff1661041c576040517f08c379a000000000000000000000000000000000000000000000000000000000815260040161041390611c69565b60405180910390fd5b600460008273ffffffffffffffffffffffffffffffffffffffff1673ffffffffffffffffffffffffffffffffffffffff16815260200190815260200160002060009054906101000a900460ff161561047e57610479818885610d3b565b61048b565b61048a81883086610db3565b5b6040518060e001604052808273ffffffffffffffffffffffffffffffffffffffff1681526020018360ff1681526020018a60ff1681526020018b81526020018581526020018873ffffffffffffffffffffffffffffffffffffffff168152602001610502620f424086610dcb90919063ffffffff16565b815250600560008b60ff1660ff16815260200190815260200160002060008a67ffffffffffffffff1667ffffffffffffffff16815260200190815260200160002060008201518160000160006101000a81548173ffffffffffffffffffffffffffffffffffffffff021916908373ffffffffffffffffffffffffffffffffffffffff16021790555060208201518160000160146101000a81548160ff021916908360ff16021790555060408201518160000160156101000a81548160ff021916908360ff1602179055506060820151816001015560808201518160020190805190602001906105f2929190611234565b5060a08201518160030160006101000a81548173ffffffffffffffffffffffffffffffffffffffff021916908373ffffffffffffffffffffffffffffffffffffffff16021790555060c0820151816004015590505050505050505050505050565b6005602052816000526040600020602052806000526040600020600091509150508060000160009054906101000a900473ffffffffffffffffffffffffffffffffffffffff16908060000160149054906101000a900460ff16908060000160159054906101000a900460ff1690806001015490806002018054600181600116156101000203166002900480601f01602080910402602001604051908101604052809291908181526020018280546001816001161561010002031660029004801561075e5780601f106107335761010080835404028352916020019161075e565b820191906000526020600020905b81548152906001019060200180831161074157829003601f168201915b5050505050908060030160009054906101000a900473ffffffffffffffffffffffffffffffffffffffff16908060040154905087565b60046020528060005260406000206000915054906101000a900460ff1681565b60036020528060005260406000206000915054906101000a900460ff1681565b60008390506107e581843085610e21565b50505050565b6107f3610bc4565b6107fd8282610eaa565b5050565b6108096112b4565b600560008360ff1660ff16815260200190815260200160002060008467ffffffffffffffff1667ffffffffffffffff1681526020019081526020016000206040518060e00160405290816000820160009054906101000a900473ffffffffffffffffffffffffffffffffffffffff1673ffffffffffffffffffffffffffffffffffffffff1673ffffffffffffffffffffffffffffffffffffffff1681526020016000820160149054906101000a900460ff1660ff1660ff1681526020016000820160159054906101000a900460ff1660ff1660ff16815260200160018201548152602001600282018054600181600116156101000203166002900480601f0160208091040260200160405190810160405280929190818152602001828054600181600116156101000203166002900480156109855780601f1061095a57610100808354040283529160200191610985565b820191906000526020600020905b81548152906001019060200180831161096857829003601f168201915b505050505081526020016003820160009054906101000a900473ffffffffffffffffffffffffffffffffffffffff1673ffffffffffffffffffffffffffffffffffffffff1673ffffffffffffffffffffffffffffffffffffffff168152602001600482015481525050905092915050565b60026020528060005260406000206000915090505481565b610a16610bc4565b610a21838383610f9c565b505050565b610a2e610bc4565b60006060606435915060405190506084358082016020016040526084360360848337506000806001600088815260200190815260200160002060009054906101000a900473ffffffffffffffffffffffffffffffffffffffff16905060208301519150600360008273ffffffffffffffffffffffffffffffffffffffff1673ffffffffffffffffffffffffffffffffffffffff16815260200190815260200160002060009054906101000a900460ff16610b1d576040517f08c379a0000000000000000000000000000000000000000000000000000000008152600401610b1490611c69565b60405180910390fd5b600460008273ffffffffffffffffffffffffffffffffffffffff1673ffffffffffffffffffffffffffffffffffffffff16815260200190815260200160002060009054906101000a900460ff1615610b9757610b92818360601c610b8d620f424088610fb290919063ffffffff16565b611022565b610bbb565b610bba818360601c610bb5620f424088610fb290919063ffffffff16565b610f9c565b5b50505050505050565b60008054906101000a900473ffffffffffffffffffffffffffffffffffffffff1673ffffffffffffffffffffffffffffffffffffffff163373ffffffffffffffffffffffffffffffffffffffff1614610c52576040517f08c379a0000000000000000000000000000000000000000000000000000000008152600401610c4990611bc9565b60405180910390fd5b565b600360008273ffffffffffffffffffffffffffffffffffffffff1673ffffffffffffffffffffffffffffffffffffffff16815260200190815260200160002060009054906101000a900460ff16610ce0576040517f08c379a0000000000000000000000000000000000000000000000000000000008152600401610cd790611be9565b60405180910390fd5b6001600460008373ffffffffffffffffffffffffffffffffffffffff1673ffffffffffffffffffffffffffffffffffffffff16815260200190815260200160002060006101000a81548160ff02191690831515021790555050565b60008390508073ffffffffffffffffffffffffffffffffffffffff166379cc679084846040518363ffffffff1660e01b8152600401610d7b929190611ad4565b600060405180830381600087803b158015610d9557600080fd5b505af1158015610da9573d6000803e3d6000fd5b5050505050505050565b6000849050610dc481858585610e21565b5050505050565b6000808211610e0f576040517f08c379a0000000000000000000000000000000000000000000000000000000008152600401610e0690611c29565b60405180910390fd5b818381610e1857fe5b04905092915050565b610ea4846323b872dd60e01b858585604051602401610e4293929190611a9d565b604051602081830303815290604052907bffffffffffffffffffffffffffffffffffffffffffffffffffffffff19166020820180517bffffffffffffffffffffffffffffffffffffffffffffffffffffffff838183161783525050505061109a565b50505050565b806001600084815260200190815260200160002060006101000a81548173ffffffffffffffffffffffffffffffffffffffff021916908373ffffffffffffffffffffffffffffffffffffffff16021790555081600260008373ffffffffffffffffffffffffffffffffffffffff1673ffffffffffffffffffffffffffffffffffffffff168152602001908152602001600020819055506001600360008373ffffffffffffffffffffffffffffffffffffffff1673ffffffffffffffffffffffffffffffffffffffff16815260200190815260200160002060006101000a81548160ff0219169083151502179055505050565b6000839050610fac8184846111ae565b50505050565b600080831415610fc5576000905061101c565b6000828402905082848281610fd657fe5b0414611017576040517f08c379a000000000000000000000000000000000000000000000000000000000815260040161100e90611c49565b60405180910390fd5b809150505b92915050565b60008390508073ffffffffffffffffffffffffffffffffffffffff166340c10f1984846040518363ffffffff1660e01b8152600401611062929190611ad4565b600060405180830381600087803b15801561107c57600080fd5b505af1158015611090573d6000803e3d6000fd5b5050505050505050565b600060608373ffffffffffffffffffffffffffffffffffffffff16836040516110c39190611a6b565b6000604051808303816000865af19150503d8060008114611100576040519150601f19603f3d011682016040523d82523d6000602084013e611105565b606091505b50915091508161114a576040517f08c379a000000000000000000000000000000000000000000000000000000000815260040161114190611c09565b60405180910390fd5b6000815111156111a857808060200190518101906111689190611483565b6111a7576040517f08c379a000000000000000000000000000000000000000000000000000000000815260040161119e90611ba9565b60405180910390fd5b5b50505050565b61122f8363a9059cbb60e01b84846040516024016111cd929190611ad4565b604051602081830303815290604052907bffffffffffffffffffffffffffffffffffffffffffffffffffffffff19166020820180517bffffffffffffffffffffffffffffffffffffffffffffffffffffffff838183161783525050505061109a565b505050565b828054600181600116156101000203166002900490600052602060002090601f016020900481019282601f1061127557805160ff19168380011785556112a3565b828001600101855582156112a3579182015b828111156112a2578251825591602001919060010190611287565b5b5090506112b09190611326565b5090565b6040518060e00160405280600073ffffffffffffffffffffffffffffffffffffffff168152602001600060ff168152602001600060ff1681526020016000801916815260200160608152602001600073ffffffffffffffffffffffffffffffffffffffff168152602001600081525090565b5b8082111561133f576000816000905550600101611327565b5090565b60008135905061135281611dab565b92915050565b60008151905061136781611dc2565b92915050565b60008135905061137c81611dd9565b92915050565b60008083601f84011261139457600080fd5b8235905067ffffffffffffffff8111156113ad57600080fd5b6020830191508360018202830111156113c557600080fd5b9250929050565b6000813590506113db81611df0565b92915050565b6000813590506113f081611e07565b92915050565b60008135905061140581611e1e565b92915050565b60006020828403121561141d57600080fd5b600061142b84828501611343565b91505092915050565b60008060006060848603121561144957600080fd5b600061145786828701611343565b935050602061146886828701611343565b9250506040611479868287016113cc565b9150509250925092565b60006020828403121561149557600080fd5b60006114a384828501611358565b91505092915050565b6000602082840312156114be57600080fd5b60006114cc8482850161136d565b91505092915050565b600080604083850312156114e857600080fd5b60006114f68582860161136d565b925050602061150785828601611343565b9150509250929050565b60008060006040848603121561152657600080fd5b60006115348682870161136d565b935050602084013567ffffffffffffffff81111561155157600080fd5b61155d86828701611382565b92509250509250925092565b60008060008060008060a0878903121561158257600080fd5b600061159089828a0161136d565b96505060206115a189828a016113f6565b95505060406115b289828a016113e1565b94505060606115c389828a01611343565b935050608087013567ffffffffffffffff8111156115e057600080fd5b6115ec89828a01611382565b92509250509295509295509295565b6000806040838503121561160e57600080fd5b600061161c858286016113e1565b925050602061162d858286016113f6565b9150509250929050565b6000806040838503121561164a57600080fd5b6000611658858286016113f6565b9250506020611669858286016113e1565b9150509250929050565b61167c81611cf4565b82525050565b61168b81611cf4565b82525050565b61169a81611d06565b82525050565b6116a981611d12565b82525050565b6116b881611d12565b82525050565b60006116c982611cab565b6116d38185611cb6565b93506116e3818560208601611d67565b6116ec81611d9a565b840191505092915050565b600061170282611cab565b61170c8185611cc7565b935061171c818560208601611d67565b61172581611d9a565b840191505092915050565b600061173b82611cab565b6117458185611cd8565b9350611755818560208601611d67565b80840191505092915050565b600061176e602083611ce3565b91507f45524332303a206f7065726174696f6e20646964206e6f7420737563636565646000830152602082019050919050565b60006117ae601e83611ce3565b91507f73656e646572206d7573742062652062726964676520636f6e747261637400006000830152602082019050919050565b60006117ee602483611ce3565b91507f70726f766964656420636f6e7472616374206973206e6f742077686974656c6960008301527f73746564000000000000000000000000000000000000000000000000000000006020830152604082019050919050565b6000611854601283611ce3565b91507f45524332303a2063616c6c206661696c656400000000000000000000000000006000830152602082019050919050565b6000611894601a83611ce3565b91507f536166654d6174683a206469766973696f6e206279207a65726f0000000000006000830152602082019050919050565b60006118d4602183611ce3565b91507f536166654d6174683a206d756c7469706c69636174696f6e206f766572666c6f60008301527f77000000000000000000000000000000000000000000000000000000000000006020830152604082019050919050565b600061193a602883611ce3565b91507f70726f766964656420746f6b656e41646472657373206973206e6f742077686960008301527f74656c69737465640000000000000000000000000000000000000000000000006020830152604082019050919050565b600060e0830160008301516119ab6000860182611673565b5060208301516119be6020860182611a4d565b5060408301516119d16040860182611a4d565b5060608301516119e460608601826116a0565b50608083015184820360808601526119fc82826116be565b91505060a0830151611a1160a0860182611673565b5060c0830151611a2460c0860182611a2f565b508091505092915050565b611a3881611d3c565b82525050565b611a4781611d3c565b82525050565b611a5681611d5a565b82525050565b611a6581611d5a565b82525050565b6000611a778284611730565b915081905092915050565b6000602082019050611a976000830184611682565b92915050565b6000606082019050611ab26000830186611682565b611abf6020830185611682565b611acc6040830184611a3e565b949350505050565b6000604082019050611ae96000830185611682565b611af66020830184611a3e565b9392505050565b600060e082019050611b12600083018a611682565b611b1f6020830189611a5c565b611b2c6040830188611a5c565b611b3960608301876116af565b8181036080830152611b4b81866116f7565b9050611b5a60a0830185611682565b611b6760c0830184611a3e565b98975050505050505050565b6000602082019050611b886000830184611691565b92915050565b6000602082019050611ba360008301846116af565b92915050565b60006020820190508181036000830152611bc281611761565b9050919050565b60006020820190508181036000830152611be2816117a1565b9050919050565b60006020820190508181036000830152611c02816117e1565b9050919050565b60006020820190508181036000830152611c2281611847565b9050919050565b60006020820190508181036000830152611c4281611887565b9050919050565b60006020820190508181036000830152611c62816118c7565b9050919050565b60006020820190508181036000830152611c828161192d565b9050919050565b60006020820190508181036000830152611ca38184611993565b905092915050565b600081519050919050565b600082825260208201905092915050565b600082825260208201905092915050565b600081905092915050565b600082825260208201905092915050565b6000611cff82611d1c565b9050919050565b60008115159050919050565b6000819050919050565b600073ffffffffffffffffffffffffffffffffffffffff82169050919050565b6000819050919050565b600067ffffffffffffffff82169050919050565b600060ff82169050919050565b60005b83811015611d85578082015181840152602081019050611d6a565b83811115611d94576000848401525b50505050565b6000601f19601f8301169050919050565b611db481611cf4565b8114611dbf57600080fd5b50565b611dcb81611d06565b8114611dd657600080fd5b50565b611de281611d12565b8114611ded57600080fd5b50565b611df981611d3c565b8114611e0457600080fd5b50565b611e1081611d46565b8114611e1b57600080fd5b50565b611e2781611d5a565b8114611e3257600080fd5b5056fea2646970667358221220f4ea1643c15955b4ab93eb59bf98860f80c3ba56fa2188741c04a3f1a39f77f064736f6c63430007000033",
    "immutableReferences": {},
    "source": "pragma solidity 0.7.0;\npragma experimental ABIEncoderV2;\n\nimport \"../interfaces/IDepositExecute.sol\";\nimport \"./HandlerHelpers.sol\";\nimport \"../ERC20Safe.sol\";\nimport \"@openzeppelin/contracts/presets/ERC20PresetMinterPauser.sol\";\nimport \"@openzeppelin/contracts/math/SafeMath.sol\";\n\n/**\n    @title Handles ERC20 deposits and deposit executions.\n    @author ChainSafe Systems.\n    @notice This contract is intended to be used with the Bridge contract.\n */\ncontract ERC20Handler is IDepositExecute, HandlerHelpers, ERC20Safe {\n    using SafeMath for uint256;\n\n    struct DepositRecord {\n        address _tokenAddress;\n        uint8    _lenDestinationRecipientAddress;\n        uint8   _destinationChainID;\n        bytes32 _resourceID;\n        bytes   _destinationRecipientAddress;\n        address _depositer;\n        uint    _amount;\n    }\n\n    // depositNonce => Deposit Record\n    mapping (uint8 => mapping(uint64 => DepositRecord)) public _depositRecords;\n\n    /**\n        @param bridgeAddress Contract address of previously deployed Bridge.\n        @param initialResourceIDs Resource IDs are used to identify a specific contract address.\n        These are the Resource IDs this contract will initially support.\n        @param initialContractAddresses These are the addresses the {initialResourceIDs} will point to, and are the contracts that will be\n        called to perform various deposit calls.\n        @param burnableContractAddresses These addresses will be set as burnable and when {deposit} is called, the deposited token will be burned.\n        When {executeProposal} is called, new tokens will be minted.\n\n        @dev {initialResourceIDs} and {initialContractAddresses} must have the same length (one resourceID for every address).\n        Also, these arrays must be ordered in the way that {initialResourceIDs}[0] is the intended resourceID for {initialContractAddresses}[0].\n     */\n    constructor(\n        address          bridgeAddress,\n        bytes32[] memory initialResourceIDs,\n        address[] memory initialContractAddresses,\n        address[] memory burnableContractAddresses\n    ) public {\n        require(initialResourceIDs.length == initialContractAddresses.length,\n            \"initialResourceIDs and initialContractAddresses len mismatch\");\n\n        _bridgeAddress = bridgeAddress;\n\n        for (uint256 i = 0; i < initialResourceIDs.length; i++) {\n            _setResource(initialResourceIDs[i], initialContractAddresses[i]);\n        }\n\n        for (uint256 i = 0; i < burnableContractAddresses.length; i++) {\n            _setBurnable(burnableContractAddresses[i]);\n        }\n    }\n\n    /**\n        @param depositNonce This ID will have been generated by the Bridge contract.\n        @param destId ID of chain deposit will be bridged to.\n        @return DepositRecord which consists of:\n        - _tokenAddress Address used when {deposit} was executed.\n        - _destinationChainID ChainID deposited tokens are intended to end up on.\n        - _resourceID ResourceID used when {deposit} was executed.\n        - _lenDestinationRecipientAddress Used to parse recipient's address from {_destinationRecipientAddress}\n        - _destinationRecipientAddress Address tokens are intended to be deposited to on desitnation chain.\n        - _depositer Address that initially called {deposit} in the Bridge contract.\n        - _amount Amount of tokens that were deposited.\n    */\n    function getDepositRecord(uint64 depositNonce, uint8 destId) external view returns (DepositRecord memory) {\n        return _depositRecords[destId][depositNonce];\n    }\n\n    /**\n        @notice A deposit is initiatied by making a deposit in the Bridge contract.\n        @param destinationChainID Chain ID of chain tokens are expected to be bridged to.\n        @param depositNonce This value is generated as an ID by the Bridge contract.\n        @param depositer Address of account making the deposit in the Bridge contract.\n        @param data Consists of: {resourceID}, {amount}, {lenRecipientAddress}, and {recipientAddress}\n        all padded to 32 bytes.\n        @notice Data passed into the function should be constructed as follows:\n        amount                      uint256     bytes   0 - 32\n        recipientAddress length     uint256     bytes  32 - 64\n        recipientAddress            bytes       bytes  64 - END\n        @dev Depending if the corresponding {tokenAddress} for the parsed {resourceID} is\n        marked true in {_burnList}, deposited tokens will be burned, if not, they will be locked.\n     */\n    function deposit(\n        bytes32 resourceID,\n        uint8   destinationChainID,\n        uint64  depositNonce,\n        address depositer,\n        bytes   calldata data\n    ) external override onlyBridge {\n        bytes   memory recipientAddress;\n        uint256        amount;\n        uint256        lenRecipientAddress;\n\n        assembly {\n\n            amount := calldataload(0xC4)\n\n            recipientAddress := mload(0x40)\n            lenRecipientAddress := calldataload(0xE4)\n            mstore(0x40, add(0x20, add(recipientAddress, lenRecipientAddress)))\n\n            calldatacopy(\n                recipientAddress, // copy to destinationRecipientAddress\n                0xE4, // copy from calldata @ 0x104\n                sub(calldatasize(), 0xE) // copy size (calldatasize - 0x104)\n            )\n        }\n\n        address tokenAddress = _resourceIDToTokenContractAddress[resourceID];\n        require(_contractWhitelist[tokenAddress], \"provided tokenAddress is not whitelisted\");\n\n        if (_burnList[tokenAddress]) {\n            burnERC20(tokenAddress, depositer, amount);\n        } else {\n            lockERC20(tokenAddress, depositer, address(this), amount);\n        }\n\n        _depositRecords[destinationChainID][depositNonce] = DepositRecord(\n            tokenAddress,\n            uint8(lenRecipientAddress),\n            destinationChainID,\n            resourceID,\n            recipientAddress,\n            depositer,\n            amount.div(1e6) // Make it compatible with substrate token decimal\n        );\n    }\n\n    /**\n        @notice Proposal execution should be initiated when a proposal is finalized in the Bridge contract.\n        by a relayer on the deposit's destination chain.\n        @param data Consists of {resourceID}, {amount}, {lenDestinationRecipientAddress},\n        and {destinationRecipientAddress} all padded to 32 bytes.\n        @notice Data passed into the function should be constructed as follows:\n        amount                                 uint256     bytes  0 - 32\n        destinationRecipientAddress length     uint256     bytes  32 - 64\n        destinationRecipientAddress            bytes       bytes  64 - END\n     */\n    function executeProposal(bytes32 resourceID, bytes calldata data) external override onlyBridge {\n        uint256       amount;\n        bytes  memory destinationRecipientAddress;\n\n        assembly {\n            amount := calldataload(0x64)\n\n            destinationRecipientAddress := mload(0x40)\n            let lenDestinationRecipientAddress := calldataload(0x84)\n            mstore(0x40, add(0x20, add(destinationRecipientAddress, lenDestinationRecipientAddress)))\n\n            // in the calldata the destinationRecipientAddress is stored at 0xC4 after accounting for the function signature and length declaration\n            calldatacopy(\n                destinationRecipientAddress, // copy to destinationRecipientAddress\n                0x84, // copy from calldata @ 0x84\n                sub(calldatasize(), 0x84) // copy size to the end of calldata\n            )\n        }\n\n        bytes20 recipientAddress;\n        address tokenAddress = _resourceIDToTokenContractAddress[resourceID];\n\n        assembly {\n            recipientAddress := mload(add(destinationRecipientAddress, 0x20))\n        }\n\n        require(_contractWhitelist[tokenAddress], \"provided tokenAddress is not whitelisted\");\n\n        if (_burnList[tokenAddress]) {\n            // amount.mul(1e6): Make it compatible with substrate token decimal\n            mintERC20(tokenAddress, address(recipientAddress), amount.mul(1e6));\n        } else {\n            // amount.mul(1e6): Make it compatible with substrate token decimal\n            releaseERC20(tokenAddress, address(recipientAddress), amount.mul(1e6));\n        }\n    }\n\n    /**\n        @notice Used to manually release ERC20 tokens from ERC20Safe.\n        @param tokenAddress Address of token contract to release.\n        @param recipient Address to release tokens to.\n        @param amount The amount of ERC20 tokens to release.\n     */\n    function withdraw(address tokenAddress, address recipient, uint amount) external override onlyBridge {\n        releaseERC20(tokenAddress, recipient, amount);\n    }\n}\n",
    "sourcePath": "/Users/wwf/workspace/PhalaProjects/chainbridge/chainbridge-solidity/contracts/handlers/ERC20Handler.sol",
    "compiler": {
        "name": "solc",
        "version": "0.7.0+commit.9e61f92b.Emscripten.clang"
    },
    "schemaVersion": "3.3.4",
    "updatedAt": "2021-06-19T06:51:18.666Z",
    "devdoc": {
        "author": "ChainSafe Systems.",
        "kind": "dev",
        "methods": {
            "constructor": {
                "details": "{initialResourceIDs} and {initialContractAddresses} must have the same length (one resourceID for every address). Also, these arrays must be ordered in the way that {initialResourceIDs}[0] is the intended resourceID for {initialContractAddresses}[0].",
                "params": {
                    "bridgeAddress": "Contract address of previously deployed Bridge.",
                    "burnableContractAddresses": "These addresses will be set as burnable and when {deposit} is called, the deposited token will be burned. When {executeProposal} is called, new tokens will be minted.",
                    "initialContractAddresses": "These are the addresses the {initialResourceIDs} will point to, and are the contracts that will be called to perform various deposit calls.",
                    "initialResourceIDs": "Resource IDs are used to identify a specific contract address. These are the Resource IDs this contract will initially support."
                }
            },
            "deposit(bytes32,uint8,uint64,address,bytes)": {
                "details": "Depending if the corresponding {tokenAddress} for the parsed {resourceID} is marked true in {_burnList}, deposited tokens will be burned, if not, they will be locked.",
                "params": {
                    "data": "Consists of: {resourceID}, {amount}, {lenRecipientAddress}, and {recipientAddress} all padded to 32 bytes.",
                    "depositNonce": "This value is generated as an ID by the Bridge contract.",
                    "depositer": "Address of account making the deposit in the Bridge contract.",
                    "destinationChainID": "Chain ID of chain tokens are expected to be bridged to."
                }
            },
            "executeProposal(bytes32,bytes)": {
                "params": {
                    "data": "Consists of {resourceID}, {amount}, {lenDestinationRecipientAddress}, and {destinationRecipientAddress} all padded to 32 bytes."
                }
            },
            "fundERC20(address,address,uint256)": {
                "params": {
                    "amount": "Amount of tokens to transfer.",
                    "owner": "Address of current token owner.",
                    "tokenAddress": "Address of ERC20 to transfer."
                }
            },
            "getDepositRecord(uint64,uint8)": {
                "params": {
                    "depositNonce": "This ID will have been generated by the Bridge contract.",
                    "destId": "ID of chain deposit will be bridged to."
                },
                "returns": {
                    "_0": "DepositRecord which consists of: - _tokenAddress Address used when {deposit} was executed. - _destinationChainID ChainID deposited tokens are intended to end up on. - _resourceID ResourceID used when {deposit} was executed. - _lenDestinationRecipientAddress Used to parse recipient's address from {_destinationRecipientAddress} - _destinationRecipientAddress Address tokens are intended to be deposited to on desitnation chain. - _depositer Address that initially called {deposit} in the Bridge contract. - _amount Amount of tokens that were deposited."
                }
            },
            "setBurnable(address)": {
                "params": {
                    "contractAddress": "Address of contract to be used when making or executing deposits."
                }
            },
            "setResource(bytes32,address)": {
                "params": {
                    "contractAddress": "Address of contract to be called when a deposit is made and a deposited is executed.",
                    "resourceID": "ResourceID to be used when making deposits."
                }
            },
            "withdraw(address,address,uint256)": {
                "params": {
                    "amount": "The amount of ERC20 tokens to release.",
                    "recipient": "Address to release tokens to.",
                    "tokenAddress": "Address of token contract to release."
                }
            }
        },
        "title": "Handles ERC20 deposits and deposit executions.",
        "version": 1
    },
    "userdoc": {
        "kind": "user",
        "methods": {
            "deposit(bytes32,uint8,uint64,address,bytes)": {
                "notice": "A deposit is initiatied by making a deposit in the Bridge contract.Data passed into the function should be constructed as follows: amount                      uint256     bytes   0 - 32 recipientAddress length     uint256     bytes  32 - 64 recipientAddress            bytes       bytes  64 - END"
            },
            "executeProposal(bytes32,bytes)": {
                "notice": "Proposal execution should be initiated when a proposal is finalized in the Bridge contract. by a relayer on the deposit's destination chain.Data passed into the function should be constructed as follows: amount                                 uint256     bytes  0 - 32 destinationRecipientAddress length     uint256     bytes  32 - 64 destinationRecipientAddress            bytes       bytes  64 - END"
            },
            "fundERC20(address,address,uint256)": {
                "notice": "Used to transfer tokens into the safe to fund proposals."
            },
            "setBurnable(address)": {
                "notice": "First verifies {contractAddress} is whitelisted, then sets {_burnList}[{contractAddress}] to true."
            },
            "setResource(bytes32,address)": {
                "notice": "First verifies {_resourceIDToContractAddress}[{resourceID}] and {_contractAddressToResourceID}[{contractAddress}] are not already set, then sets {_resourceIDToContractAddress} with {contractAddress}, {_contractAddressToResourceID} with {resourceID}, and {_contractWhitelist} to true for {contractAddress}."
            },
            "withdraw(address,address,uint256)": {
                "notice": "Used to manually release ERC20 tokens from ERC20Safe."
            }
        },
        "notice": "This contract is intended to be used with the Bridge contract.",
        "version": 1
    }
}